:10134E0041542B43495053454E443D302C340D0AE5
:08135E000044485431313A000B
:0314500001120086
:04144B007F50DFFEF1
:01144F00227A
:0C13FF007F017ED87D23DDFEDEFCDFFADE
:01140B0022BE
:0C140C007F2B7E067DCBDDFEDEFCDFFAD0
:0114180022B1
:0C1419007F167E037DE3DDFEDEFCDFFAC3
:0114250022A4
:10137E0053877F759850438E04759CDC438E0143D2
:07138E008E10D2AFD2AC2299
:10128E008B3C8A3D893EAB3CAA3DA93E120CA46024
:10129E0016053EE53E7002053D14F9120CA4F599B3
:0812AE003099FDC29980DF2296
:08143C008F993099FDC299223D
:100D5100E4FCC2921213FFD29212144B7F503092D4
:100D610006AE071FEE70F7EF7005D2927FFF227F6C
:100D7100FA209206AE071FEE70F7EF7005D2927F50
:100D8100FE227FFA309206AE071FEE70F7EF700574
:100D9100D2927FFD22E4FEEEC394057480948050CC
:100DA10043E4FDEDC3940874809480502E7F962017
:100DB1009206AB071FEB70F7EF7005D2927FFC2212
:100DC100E4FF3092040FEF70F9EC25E0FCEFD394CF
:100DD1001E7480948040010C0D80C8740D2EF8A6FD
:0E0DE100040E80B312144B12144BD2927F00FA
:010DEF0022E1
:1012B600E4FFFEFDEDC3940474809480500D740D1C
:1012C6002DF8E62FFFE43EFE0D80E9EF6511600381
:0512D6007FFF227F00F4
:0112DB0022F0
:10110000120D51EFFD3395E04D70301212B6EF33F2
:1011100095E04F7026D2AC7BFF7A13794E1213AC58
:1011200012140C850D13751468850F157516747BD4
:0B113000007A00791312128E121419BD
:01113B002291
:10120700120D51EFFD3395E04D70231212B6EF33F7
:1012170095E04F7019D2AC850D08750968850F0ADE
:0E122700750B74FB7A00790812128E121419DE
:011235002296
:100FE700120D51EFFD3395E04D70601212B6EF33DD
:100FF70095E04F7056AF0D850E39AE0F85103A85C7
:10100700113BEF75F00A842430F52CEF75F00A8454
:10101700E5F02430F52D752E25752F52753048755E
:101027003120753220EE75F00A842430F533EE75E1
:10103700F00A84E5F02430F53475355E7536437B68
:0B104700007A00792C12128E12140C9B
:01105200227B
:1012DC0012137E120AE21211A47BFF7A13795F7546
:1012EC004110E4FDFF1210BC12140C12120780FB0B
:100003000000000000000000002F000000000700B7
:10001300070000147F147F1400242A7F2A12006231
:1000230064081323003649552250000005030000DD
:1000330000001C224100000041221C000014083E65
:1000430008140008083E0808000000A0600000082B
:10005300080808080000606000000020100804027F
:10006300003E5149453E0000427F4000004261513D
:100073004946002141454B31001814127F100027D7
:1000830045454539003C4A4949300001710905039A
:1000930000364949493600064949291E00003636CB
:1000A300000000005636000000081422410000142E
:1000B300141414140000412214080002015109060B
:1000C30000324959513E007C1211127C007F49498C
:1000D3004936003E41414122007F4141221C007FBD
:1000E30049494941007F09090901003E4149497ACB
:1000F300007F0808087F0000417F41000020404145
:100103003F01007F08142241007F40404040007FB0
:10011300020C027F007F0408107F003E4141413EF4
:10012300007F09090906003E4151215E007F09193C
:1001330029460046494949310001017F0101003F39
:100143004040403F001F2040201F003F4038403FB9
:10015300006314081463000708700807006151491D
:10016300454300007F41410000552A552A550000B0
:1001730041417F000004020102040040404040402E
:10018300000001020400002054545478007F4844C6
:10019300443800384444442000384444487F0038FD
:1001A3005454541800087E0901020018A4A4A47C26
:1001B300007F080404780000447D400000408084F0
:1001C3007D00007F102844000000417F4000007C38
:1001D30004180478007C0804047800384444443844
:1001E30000FC242424180018242418FC007C080490
:1001F300040800485454542000043F444020003C69
:100203004040207C001C2040201C003C4030403CEF
:10021300004428102844001CA0A0A07C004464547F
:100223004C441414141414140000000000000000C3
:100233000000000000000000000000F800000000C3
:10024300000000333000000000100C06100C060004
:10025300000000000000000040C07840C07840006B
:10026300043F04043F040400007088FC08300000CD
:10027300001820FF211E0000F008F000E018000025
:1002830000211C031E211E0000F0088870000000DE
:100293001E2123241927211010160E000000000030
:1002A3000000000000000000000000E0180402004D
:1002B300000000071820400000020418E0000000BE
:1002C3000040201807000000404080F080404000BC
:1002D3000202010F01020200000000F00000000012
:1002E3000101011F010101000000000000000000E6
:1002F30080B070000000000000000000000000005B
:1003030000010101010101010000000000000000E3
:10031300003030000000000000000000806018047E
:10032300006018060100000000E010080810E0005B
:10033300000F102020100F00001010F80000000024
:100343000020203F2020000000700808088870006B
:1003530000302824222130000030088888483000EB
:100363000018202020110E000000C02010F800000B
:1003730000070424243F240000F8088888080800A4
:100383000019212020110E0000E0108888180000B9
:10039300000F112020110E0000380808C83808008B
:1003A3000000003F0000000000708808088870000B
:1003B300001C222121221C0000E010080810E0008C
:1003C3000000312222110F00000000C0C000000015
:1003D300000000303000000000000080000000003A
:1003E3000000806000000000000080402010080032
:1003F30000010204081020004040404040404000FB
:1004030004040404040404000008102040800000D5
:100413000020100804020100007048080808F000DA
:100423000000003036010000C030C828E810E000AA
:100433000718272423140B000000C038E000000035
:10044300203C23020227382008F88888887000009F
:10045300203F202020110E00C03008080808380073
:10046300071820202010080008F808080810E000EA
:10047300203F202020100F0008F88888E80810008B
:10048300203F20202320180008F88888E80810005F
:10049300203F200003000000C03008080838000097
:1004A30007182020221E020008F808000008F80898
:1004B300203F210101213F20000808F8080800001F
:1004C3000020203F2020000000000808F808080052
:1004D300C08080807F00000008F888C028180800CA
:1004E300203F20012638200008F808000000000003
:1004F300203F20202020300008F8F800F8F80800FA
:10050300203F003F003F200008F830C00008F808F3
:10051300203F200007183F00E01008080810E00003
:100523000F10202020100F0008F808080808F0001A
:10053300203F210101010000E01008080810E0003D
:100543000F18242438504F0008F8888888887000D2
:10055300203F2000030C3020007088080808380072
:100563000038202121221C00180808F80808180068
:100573000000203F2000000008F808000008F808E9
:10058300001F202020201F000878880000C838089A
:10059300000007380E010000F80800F80008F80012
:1005A300033C0700073C03000818688080681808AC
:1005B30020302C03032C30200838C800C83808002A
:1005C3000000203F2000000010080808C838080079
:1005D3002038262120201800000000FE020202001D
:1005E3000000007F40404000000C30C000000000CD
:1005F300000000010638C00000020202FE000000F5
:10060300004040407F00000000000402020204009A
:1006130000000000000000000000000000000000D7
:1006230080808080808080800002020400000000BF
:1006330000000000000000000000808080800000B7
:100643000019242222223F2008F8008080000000A5
:10065300003F112020110E00000000808080000068
:10066300000E112020201100000000808088F80077
:10067300000E112020103F200000808080800000A9
:10068300001F222222221300008080F0888888180D
:100693000020203F20200000000080808080800018
:1006A300006B94949493600008F8008080800000AD
:1006B300203F210000203F20008098980000000088
:1006C3000020203F202000000000008098980000B8
:1006D30000C08080807F000008F8000080808000D8
:1006E300203F24022D302000000808F800000000FD
:1006F3000020203F202000008080808080808000B8
:10070300203F20003F20003F808000808080000049
:10071300203F210000203F200000808080800000D7
:10072300001F202020201F00808000808000000008
:1007330080FFA12020110E00000000808080800037
:10074300000E112020A0FF80808080008080800028
:1007530020203F2120000100000080808080800055
:100763000033242424241900008080E080800000CA
:100773000000001F20200000808000000080800017
:10078300001F202020103F20808080000080808078
:1007930000010E3008060100808000800080808008
:1007A3000F300C030C300F0000808000808080002D
:1007B3000020312E0E312000808080000080808058
:1007C30080818E7018060100008080808080800008
:1007D3000021302C2221300000000000807C020226
:1007E30000000000003F404000000000FF00000048
:1007F30000000000FF0000000002027C80000000F7
:100803000040403F00000000000601010202040412
:1008130000000000000000000000F010101010FFA6
:1008230010101010F0000000000000000000000095
:10083300000000000000000000000F04040404FF97
:10084300040404040F000000000000000000000086
:1008530000000000000000004040405F5555557502
:100863005555555F40404000000000000000000067
:1008730000000000000000000040200F09498979B2
:100883000909090F204000000000000000000000DB
:10089300000000000000000000FE02424ACA4A4A6B
:1008A300CA4A4A4202FE00000000000000000000A5
:1008B300000000000000000000FF40504C43404097
:1008C3004F50505C40FF000000000000000000009B
:1008D30000000000000000000000F888888888FFFE
:1008E30088888888F80000000000000000000000ED
:1008F300000000000000000000001F080808087F37
:10090300888888889F80F0000000000000000000B5
:10091300000000000000000080828282828282E266
:10092300A2928A86828080000000000000000000FE
:100933000000000000000000000000000040807F75
:1009430000000000000000000000000000000000A4
:1009530000000000000000002424A4FEA3220022C3
:10096300CC0000FF000000000000000000000000B9
:100973000000000000000000080601FF000104045D
:10098300040404FF02020200000000000000000053
:100993000000000000000000101010FF10900888F5
:1009A3008888FF8888880800000000000000000095
:1009B30000000000000000000444827F01808040AA
:1009C300432C102846818000000000000000000036
:0809D30000000000000000001C
:10131A00EF4E60157D087C07ED1DAA0470011C4A7A
:09132A0070F6EF1F70EA1E80E767
:011333002297
:09143300D291D290C290C2912224
:07144400D291C290D2902268
:0B13D3001211DD1213DEAF041211DD59
:0513DE00D291C2912232
:0711D600AC071214337F780F
:1011DD00C291E4FEEEC3940874809480501BAD0759
:1011ED00530580ED64807004D2908002C290EF258B
:0911FD00E0FFD291C2910E80DBEB
:0112060022C5
:0E13E3001211D61213DEE4FF1213D3021444CB
:0E13F1001211D61213DE7F401213D3021444E1
:10123600EF24B0FFEE33FEE4FDFC121251E4FDFC98
:0B124600FFFE1212517F10E4FDFCFEC1
:10125100AB07AA06ED4C60030213F1AF031213E3CF
:01126100226A
:02113C008F60C2
:10113E00E4F9E9FF7E00C394087480948050231272
:10114E001236E4F561C3E561948074809480500F8B
:10115E00AF607E007D017C00121251056180E609B0
:02116E0080D02F
:01117000225C
:1012FC00D3EF9400EE940040147D657C18ED1D70C6
:0D130C00011CED4C70F7EF1F70E61E80E332
:0113190022B1
:10133400EF1FAA0670011E4A600FE4FDEDC3947B03
:091344007480948050EA0D80F3DE
:01134D00227D
:10126200A907ED24B0FFE433FEE4FDFC121251E9BC
:1012720054F0C4540F7E004410FFE4FDFC121251DE
:0C128200E9540FFF7E00E4FDFC02125155
:101395007F8D12124DE4FDFC7F14FE121251E4FD07
:0713A500FC7FAFFE021251B4
:1013C200E4FDFC7F8D121247E4FDFC7FAEFE0212AB
:0113D20051C9
:1011A400E4F9E9FF7E00C39408748094805022120D
:1011B4001236E4F53CC3E53C948074809480500E70
:1011C4007D017C00E4FFFE121251053C80E709809A
:0111D400D149
:0111D50022F7
:10117100E4F9E9FF7E00C39408748094805023123F
:101181001236E4F562C3E562948074809480500F56
:101191007D017C007F017E00121251056280E6090B
:0211A10080D0FC
:0111A3002229
:040BC9008F438D4485
:100BCD00E4F547F9EB24E0F547D3EF947F74809477
:100BDD00804007E4F54305440544E5466410707A0A
:100BED00AD44AF43121262E4F9E9C39408748094E2
:100BFD0080502975F010E547A429F582E435F0F50C
:100C0D0083E582242BF582E5833402F583E493FF9B
:100C1D007E007D017C001212510980CDE54404FD5A
:100C2D00AF43121262E4F9E9C394087480948050C2
:100C3D006575F010E547A429F582E435F0F583E5F7
:100C4D00822433F582E5833402F583E493FF7E003D
:100C5D007D017C001212510980CDAD44AF431212BB
:100C6D0062E4F9E9C3940674809480502975F00606
:100C7D00E547A42403F582E5F03400F583E58229E8
:100C8D00F582E43583F583E493FF7E007D017C00DE
:060C9D001212510980CD86
:010CA300222E
:041366008F63A905E3
:10136A007F017E00AD0119ED6009AD637C00120CAE
:03137A00EA80F115
:01137D00224D
:080F00008F538D548A558B5666
:100F0800E4F55BF559E559C395575065C3E5579521
:100F18005914FD7F0A121366AC55AD56CFCDCFCE0E
:100F2800CCCE120CFC7C007D0A120CFC8D5AE55BC1
:100F38007023E55714FFE559C39F5019E55A7012FD
:100F4800E558C3138559F0A42553FF8558467B20DF
:100F58008016755B01E558C3138559F0A42553FF26
:100F6800E55A2430FB855846AD54120BC905598003
:010F780094E4
:010F79002255
:0A10BC008F3C8D3D8B3E8A3F89403A
:1010C600E4F542AB3EAA3FA94085428275830012F1
:1010D6000CBDFB6024854146AD3DAF3C120BC97487
:1010E60008253CF53CD39478748094804007E4F559
:0910F6003C053D053D054280CAA0
:0110FF0022CE
:060E7C008F5C8D5D8B5EB2
:100E8200E4F55F121262E4F9E9C39410748094806D
:100E9200502B75F040E55EA4241BF582E5F0340882
:100EA200F583E58229F582E43583F583E493FF7EB9
:100EB200007D017C00121251055F0980CBE55D04C3
:100EC200FDAF5C121262E4F9E9C39410748094805D
:100ED200502B75F040E55EA4243BF582E5F0340822
:100EE200F583E58229F582E43583F583E493FF7E79
:0D0EF200007D017C00121251055F0980CBCC
:010EFF0022D0
:041053008F488B4AED
:10105700E4F54FF550E54B5407700BE54B131313AD
:10106700541FF552800AE54B131313541F04F5520E
:101077008D52E552C3954B503BAD52AF48121262A9
:10108700854851E551C3954A5026AB4CAA4DA94E08
:101097000550E550AE4F7002054F14F5828E83124E
:1010A7000CBDFF7E007D017C00121251055180D3DB
:0410B700055280BEA0
:0110BB002212
:100AE2007F647E00121334E4FDFC7FAEFE121240DE
:100AF200E4FDFC7F40FE121251E4FDFC7FB0FE12C9
:100B02001251E4FDFC7F81FE121251E4FDFC7FFFD5
:100B1200FE121251E4FDFC7FA1FE121251E4FDFC13
:100B22007FA6FE121251E4FDFC7FA8FE121251E4D0
:100B3200FDFC7F3FFE121251E4FDFC7FC8FE121243
:100B420051E4FDFC7FD3FE121251E4FDFCFFFE12C4
:100B52001251E4FDFC7FD5FE121251E4FDFC7F80B0
:100B6200FE121251E4FDFC7FD8FE121251E4FDFC8C
:100B72007F05FE121251E4FDFC7FD9FE121251E4F0
:100B8200FDFC7FF1FE121251E4FDFC7FDAFE12122F
:100B920051E4FDFC7F12FE121251E4FDFC7FDBFEEC
:100BA200121251E4FDFC7F30FE121251E4FDFC7F73
:100BB2008DFE121251E4FDFC7F14FE121251E4FD6F
:070BC200FC7FAFFE0212519F
:100F7A0041542B5253540D0A0041542B43574D4FA1
:100F8A0044453D320D0A0041542B43575341503DCD
:100F9A0022313930343231323139222C2230303058
:100FAA003030303030222C31312C330D0A0041548C
:100FBA002B4349504D55583D310D0A0041542B439E
:100FCA0049505345525645523D312C383038300D30
:0D0FDA000A0041542B43494653520D0A00B2
:0C1426007F2B7E067DCBDDFEDEFCDFFAB6
:011432002297
:1013AC00120CA46010F5993099FDC299740129F9B9
:0613BC00E43AFA80EB2286
:1009DB00751AFF751B0F751C7A751DFF751E0F752C
:1009EB001F837520FF75210F7522917523FF7524C9
:1009FB000F7525B87526FF75270F7528C67529FF46
:100A0B00752A0F752BDCC2ACAB1AAA1BA91C120CD6
:100A1B00A46014F5993099FDC2997401251CF51C3D
:100A2B00E4351BF51B80E1121426AB1DAA1EA91F72
:100A3B00120CA46014F5993099FDC2997401251F0D
:100A4B00F51FE4351EF51E80E1121426AB20AA21FA
:100A5B00A922120CA46014F5993099FDC299740166
:100A6B002522F522E43521F52180E1121426AB2352
:100A7B00AA24A925120CA46014F5993099FDC299EA
:100A8B0074012525F525E43524F52480E11214267F
:100A9B00AB26AA27A928120CA46014F5993099FD4E
:100AAB00C29974012528F528E43527F52780E11232
:100ABB001426AB29AA2AA92B120CA46014F5993081
:100ACB0099FDC2997401252BF52BE4352AF52A8063
:060ADB00E1121426D2AC6A
:010AE10022F2
:03000000020DF0FE
:0C0DF000787FE4F6D8FD758163020E37B1
:100CA400BB010689828A83E0225002E722BBFE024E
:090CB400E32289828A83E4932281
:100CBD00BB010CE58229F582E5833AF583E02250EC
:100CCD0006E92582F8E622BBFE06E92582F8E22236
:0D0CDD00E58229F582E5833AF583E4932250
:100CEA00EF8DF0A4A8F0CF8CF0A428CE8DF0A42E1E
:020CFA00FE22D8
:100CFC00BC000BBE0029EF8DF084FFADF022E4CCDC
:100D0C00F875F008EF2FFFEE33FEEC33FCEE9DECA4
:100D1C00984005FCEE9DFE0FD5F0E9E4CEFD22EDEA
:100D2C00F8F5F0EE8420D21CFEADF075F008EF2F34
:100D3C00FFED33FD4007985006D5F0F222C398FD25
:050D4C000FD5F0EA22C2
:100DFC000212DCE493A3F8E493A34003F68001F21F
:100E0C0008DFF48029E493A3F85407240CC8C333F7
:100E1C00C4540F4420C8834004F456800146F6DFC6
:100E2C00E4800B0102040810204080901450E47EF2
:100E3C00019360BCA3FF543F30E509541FFEE493BB
:100E4C00A360010ECF54C025E060A840B8E493A382
:100E5C00FAE493A3F8E493A3C8C582C8CAC583CAAD
:100E6C00F0A3C8C582C8CAC583CADFE9DEE780BE65
:011453000098
:00000001FF
