BL51 BANKED LINKER/LOCATER V6.22.2.0                                                    04/04/2022  23:40:17  PAGE 1


BL51 BANKED LINKER/LOCATER V6.22.2.0, INVOKED BY:
C:\KEIL_V5\C51\BIN\BL51.EXE main.obj, oled.obj, 8266_wifi.obj TO Project RAMSIZE (256) DISABLEWARNING (16)


MEMORY MODEL: SMALL


INPUT MODULES INCLUDED:
  main.obj (MAIN)
  oled.obj (OLED)
  8266_wifi.obj (8266_WIFI)
  C:\KEIL_V5\C51\LIB\C51S.LIB (?C_STARTUP)
  C:\KEIL_V5\C51\LIB\C51S.LIB (?C?CLDPTR)
  C:\KEIL_V5\C51\LIB\C51S.LIB (?C?CLDOPTR)
  C:\KEIL_V5\C51\LIB\C51S.LIB (?C?IMUL)
  C:\KEIL_V5\C51\LIB\C51S.LIB (?C?UIDIV)
  C:\KEIL_V5\C51\LIB\C51S.LIB (?C_INIT)


LINK MAP OF MODULE:  Project (MAIN)


            TYPE    BASE      LENGTH    RELOCATION   SEGMENT NAME
            -----------------------------------------------------

            * * * * * * *   D A T A   M E M O R Y   * * * * * * *
            REG     0000H     0008H     ABSOLUTE     "REG BANK 0"
            DATA    0008H     0012H     UNIT         ?DT?MAIN
            DATA    001AH     0012H     UNIT         ?DT?CONNECT_8266?8266_WIFI
            DATA    002CH     0010H     UNIT         ?DT?SENDOUTDH11STR?MAIN
            DATA    003CH     000CH     UNIT         _DATA_GROUP_
            DATA    0048H     000BH     UNIT         ?DT?_OLED_DRAWBMP?OLED
            DATA    0053H     0009H     UNIT         ?DT?_OLED_SHOWNUM?OLED
            DATA    005CH     0004H     UNIT         ?DT?_OLED_SHOWCHINESE?OLED
            DATA    0060H     0002H     UNIT         ?DT?_FILL_PICTURE?OLED
            DATA    0062H     0001H     UNIT         ?DT?OLED_ON?OLED
            DATA    0063H     0001H     UNIT         ?DT?_OLED_POW?OLED
            IDATA   0064H     0001H     UNIT         ?STACK

            * * * * * * *   C O D E   M E M O R Y   * * * * * * *
            CODE    0000H     0003H     ABSOLUTE     
            CODE    0003H     09D8H     UNIT         ?CO?OLED
            CODE    09DBH     0107H     UNIT         ?PR?CONNECT_8266?8266_WIFI
            CODE    0AE2H     00E7H     UNIT         ?PR?OLED_INIT?OLED
            CODE    0BC9H     00DBH     UNIT         ?PR?_OLED_SHOWCHAR?OLED
            CODE    0CA4H     00ADH     UNIT         ?C?LIB_CODE
            CODE    0D51H     009FH     UNIT         ?PR?GETDATA?MAIN
            CODE    0DF0H     008CH     UNIT         ?C_C51STARTUP
            CODE    0E7CH     0084H     UNIT         ?PR?_OLED_SHOWCHINESE?OLED
            CODE    0F00H     007AH     UNIT         ?PR?_OLED_SHOWNUM?OLED
            CODE    0F7AH     006DH     UNIT         ?CO?8266_WIFI
            CODE    0FE7H     006CH     UNIT         ?PR?SENDOUTDH11STR?MAIN
            CODE    1053H     0069H     UNIT         ?PR?_OLED_DRAWBMP?OLED
            CODE    10BCH     0044H     UNIT         ?PR?_OLED_SHOWSTRING?OLED
            CODE    1100H     003CH     UNIT         ?PR?SENDOUTDATA_ESP8266?MAIN
            CODE    113CH     0035H     UNIT         ?PR?_FILL_PICTURE?OLED
            CODE    1171H     0033H     UNIT         ?PR?OLED_ON?OLED
            CODE    11A4H     0032H     UNIT         ?PR?OLED_CLEAR?OLED
BL51 BANKED LINKER/LOCATER V6.22.2.0                                                  04/04/2022  23:40:17  PAGE 2


            CODE    11D6H     0031H     UNIT         ?PR?_WRITE_IIC_BYTE?OLED
            CODE    1207H     002FH     UNIT         ?PR?SENDOUTDATA_SERIAL?MAIN
            CODE    1236H     002CH     UNIT         ?PR?_OLED_WR_BYTE?OLED
            CODE    1262H     002CH     UNIT         ?PR?_OLED_SET_POS?OLED
            CODE    128EH     0028H     UNIT         ?PR?_PRINTS?MAIN
            CODE    12B6H     0026H     UNIT         ?PR?CHECK?MAIN
            CODE    12DCH     0020H     UNIT         ?PR?MAIN?MAIN
            CODE    12FCH     001EH     UNIT         ?PR?_DELAY_50MS?OLED
            CODE    131AH     001AH     UNIT         ?PR?_DELAY_MS?OLED
            CODE    1334H     001AH     UNIT         ?PR?_DELAY_1MS?OLED
            CODE    134EH     0018H     UNIT         ?CO?MAIN
            CODE    1366H     0018H     UNIT         ?PR?_OLED_POW?OLED
            CODE    137EH     0017H     UNIT         ?PR?UARTINIT?MAIN
            CODE    1395H     0017H     UNIT         ?PR?OLED_DISPLAY_ON?OLED
            CODE    13ACH     0016H     UNIT         ?PR?_UART_SENDBYTE?8266_WIFI
            CODE    13C2H     0011H     UNIT         ?PR?OLED_DISPLAY_OFF?OLED
            CODE    13D3H     0010H     UNIT         ?PR?IIC_WAIT_ACK?OLED
            CODE    13E3H     000EH     UNIT         ?PR?_WRITE_IIC_COMMAND?OLED
            CODE    13F1H     000EH     UNIT         ?PR?_WRITE_IIC_DATA?OLED
            CODE    13FFH     000DH     UNIT         ?PR?DELAY20MS?MAIN
            CODE    140CH     000DH     UNIT         ?PR?DELAY1S?MAIN
            CODE    1419H     000DH     UNIT         ?PR?DELAY500MS?MAIN
            CODE    1426H     000DH     UNIT         ?PR?DELAY1000MS?8266_WIFI
            CODE    1433H     0009H     UNIT         ?PR?IIC_START?OLED
            CODE    143CH     0008H     UNIT         ?PR?_PUTCHAR?MAIN
            CODE    1444H     0007H     UNIT         ?PR?IIC_STOP?OLED
            CODE    144BH     0005H     UNIT         ?PR?DELAY30US?MAIN
            CODE    1450H     0004H     UNIT         ?C_INITSEG



OVERLAY MAP OF MODULE:   Project (MAIN)


SEGMENT                                DATA_GROUP 
  +--> CALLED SEGMENT                START    LENGTH
----------------------------------------------------
?C_C51STARTUP                        -----    -----
  +--> ?PR?MAIN?MAIN
  +--> ?C_INITSEG

?PR?MAIN?MAIN                        -----    -----
  +--> ?PR?UARTINIT?MAIN
  +--> ?PR?OLED_INIT?OLED
  +--> ?PR?OLED_CLEAR?OLED
  +--> ?CO?MAIN
  +--> ?PR?_OLED_SHOWSTRING?OLED
  +--> ?PR?DELAY1S?MAIN
  +--> ?PR?SENDOUTDATA_SERIAL?MAIN

?PR?OLED_INIT?OLED                   -----    -----
  +--> ?PR?_DELAY_1MS?OLED
  +--> ?PR?_OLED_WR_BYTE?OLED

?PR?_OLED_WR_BYTE?OLED               -----    -----
  +--> ?PR?_WRITE_IIC_DATA?OLED
  +--> ?PR?_WRITE_IIC_COMMAND?OLED
BL51 BANKED LINKER/LOCATER V6.22.2.0                                                  04/04/2022  23:40:17  PAGE 3



?PR?_WRITE_IIC_DATA?OLED             -----    -----
  +--> ?PR?_WRITE_IIC_BYTE?OLED
  +--> ?PR?IIC_WAIT_ACK?OLED
  +--> ?PR?IIC_STOP?OLED

?PR?_WRITE_IIC_BYTE?OLED             -----    -----
  +--> ?PR?IIC_START?OLED

?PR?IIC_WAIT_ACK?OLED                -----    -----
  +--> ?PR?_WRITE_IIC_BYTE?OLED

?PR?_WRITE_IIC_COMMAND?OLED          -----    -----
  +--> ?PR?_WRITE_IIC_BYTE?OLED
  +--> ?PR?IIC_WAIT_ACK?OLED
  +--> ?PR?IIC_STOP?OLED

?PR?OLED_CLEAR?OLED                  003CH    0001H
  +--> ?PR?_OLED_WR_BYTE?OLED

?PR?_OLED_SHOWSTRING?OLED            003CH    0007H
  +--> ?PR?_OLED_SHOWCHAR?OLED

?PR?_OLED_SHOWCHAR?OLED              0043H    0005H
  +--> ?PR?_OLED_SET_POS?OLED
  +--> ?CO?OLED
  +--> ?PR?_OLED_WR_BYTE?OLED

?PR?_OLED_SET_POS?OLED               -----    -----
  +--> ?PR?_OLED_WR_BYTE?OLED

?PR?SENDOUTDATA_SERIAL?MAIN          -----    -----
  +--> ?PR?GETDATA?MAIN
  +--> ?PR?CHECK?MAIN
  +--> ?PR?_PRINTS?MAIN
  +--> ?PR?DELAY500MS?MAIN

?PR?GETDATA?MAIN                     -----    -----
  +--> ?PR?DELAY20MS?MAIN
  +--> ?PR?DELAY30US?MAIN

?PR?_PRINTS?MAIN                     003CH    0003H



SYMBOL TABLE OF MODULE:  Project (MAIN)

  VALUE           TYPE          NAME
  ----------------------------------

  -------         MODULE        MAIN
  C:0000H         SYMBOL        _ICE_DUMMY_
  D:0008H         PUBLIC        dat_Serial
  D:0080H         PUBLIC        P0
  D:0090H         PUBLIC        P1
  D:00A0H         PUBLIC        P2
  D:00B0H         PUBLIC        P3
BL51 BANKED LINKER/LOCATER V6.22.2.0                                                  04/04/2022  23:40:17  PAGE 4


  D:00C0H         PUBLIC        P4
  D:00C8H         PUBLIC        P5
  B:00A8H.7       PUBLIC        EA
  C:1207H         PUBLIC        SendOutData_Serial
  D:000DH         PUBLIC        dat_r
  D:00A8H         PUBLIC        IE
  C:140CH         PUBLIC        Delay1s
  B:00A8H.4       PUBLIC        ES
  D:00B8H         PUBLIC        IP
  B:0090H.2       PUBLIC        DATA
  B:0098H.1       PUBLIC        TI
  C:0D51H         PUBLIC        GetData
  C:128EH         PUBLIC        _prints
  D:00D8H         PUBLIC        CCON
  C:12DCH         PUBLIC        main
  D:0099H         PUBLIC        SBUF
  D:0087H         PUBLIC        PCON
  D:0098H         PUBLIC        SCON
  C:137EH         PUBLIC        UartInit
  D:0088H         PUBLIC        TCON
  C:13FFH         PUBLIC        Delay20ms
  C:144BH         PUBLIC        Delay30us
  D:008EH         PUBLIC        AUXR
  D:0012H         PUBLIC        num
  D:0013H         PUBLIC        dat_ESP8266
  C:12B6H         PUBLIC        Check
  C:1100H         PUBLIC        SendOutData_ESP8266
  D:0018H         PUBLIC        i
  D:009CH         PUBLIC        BRT
  C:1419H         PUBLIC        Delay500ms
  C:0FE7H         PUBLIC        SendOutDH11Str
  D:00D0H         PUBLIC        PSW
  C:143CH         PUBLIC        _putchar
  -------         PROC          DELAY30US
  -------         DO            
  D:0007H         SYMBOL        i
  -------         ENDDO         
  C:144BH         LINE#         35
  C:144BH         LINE#         36
  C:144BH         LINE#         39
  C:144DH         LINE#         40
  C:144FH         LINE#         41
  -------         ENDPROC       DELAY30US
  -------         PROC          DELAY20MS
  -------         DO            
  D:0007H         SYMBOL        i
  D:0006H         SYMBOL        j
  D:0005H         SYMBOL        k
  -------         ENDDO         
  C:13FFH         LINE#         43
  C:13FFH         LINE#         44
  C:13FFH         LINE#         47
  C:1401H         LINE#         48
  C:1403H         LINE#         49
  C:1405H         LINE#         51
  C:1405H         LINE#         53
  C:1405H         LINE#         54
BL51 BANKED LINKER/LOCATER V6.22.2.0                                                  04/04/2022  23:40:17  PAGE 5


  C:1407H         LINE#         55
  C:1409H         LINE#         56
  C:140BH         LINE#         57
  -------         ENDPROC       DELAY20MS
  -------         PROC          DELAY1S
  -------         DO            
  D:0007H         SYMBOL        i
  D:0006H         SYMBOL        j
  D:0005H         SYMBOL        k
  -------         ENDDO         
  C:140CH         LINE#         59
  C:140CH         LINE#         60
  C:140CH         LINE#         63
  C:140EH         LINE#         64
  C:1410H         LINE#         65
  C:1412H         LINE#         67
  C:1412H         LINE#         69
  C:1412H         LINE#         70
  C:1414H         LINE#         71
  C:1416H         LINE#         72
  C:1418H         LINE#         73
  -------         ENDPROC       DELAY1S
  -------         PROC          DELAY500MS
  -------         DO            
  D:0007H         SYMBOL        i
  D:0006H         SYMBOL        j
  D:0005H         SYMBOL        k
  -------         ENDDO         
  C:1419H         LINE#         74
  C:1419H         LINE#         75
  C:1419H         LINE#         78
  C:141BH         LINE#         79
  C:141DH         LINE#         80
  C:141FH         LINE#         82
  C:141FH         LINE#         84
  C:141FH         LINE#         85
  C:1421H         LINE#         86
  C:1423H         LINE#         87
  C:1425H         LINE#         88
  -------         ENDPROC       DELAY500MS
  -------         PROC          UARTINIT
  C:137EH         LINE#         93
  C:137EH         LINE#         94
  C:137EH         LINE#         95
  C:1381H         LINE#         96
  C:1384H         LINE#         97
  C:1387H         LINE#         98
  C:138AH         LINE#         99
  C:138DH         LINE#         100
  C:1390H         LINE#         102
  C:1392H         LINE#         103
  C:1394H         LINE#         104
  -------         ENDPROC       UARTINIT
  -------         PROC          _PRINTS
  D:003CH         SYMBOL        s
  C:128EH         LINE#         107
  C:1294H         LINE#         108
BL51 BANKED LINKER/LOCATER V6.22.2.0                                                  04/04/2022  23:40:17  PAGE 6


  C:1294H         LINE#         109
  C:129FH         LINE#         110
  C:129FH         LINE#         111
  C:12AEH         LINE#         112
  C:12B1H         LINE#         113
  C:12B3H         LINE#         114
  C:12B5H         LINE#         115
  -------         ENDPROC       _PRINTS
  -------         PROC          _PUTCHAR
  D:0007H         SYMBOL        ch
  C:143CH         LINE#         118
  C:143CH         LINE#         119
  C:143CH         LINE#         120
  C:143EH         LINE#         121
  C:1443H         LINE#         122
  -------         ENDPROC       _PUTCHAR
  -------         PROC          GETDATA
  -------         DO            
  D:0005H         SYMBOL        i
  D:0006H         SYMBOL        j
  D:0007H         SYMBOL        t
  D:0004H         SYMBOL        dat8
  -------         ENDDO         
  C:0D51H         LINE#         132
  C:0D51H         LINE#         133
  C:0D51H         LINE#         136
  C:0D53H         LINE#         138
  C:0D55H         LINE#         139
  C:0D58H         LINE#         140
  C:0D5AH         LINE#         141
  C:0D5DH         LINE#         143
  C:0D5FH         LINE#         144
  C:0D68H         LINE#         145
  C:0D6BH         LINE#         146
  C:0D6BH         LINE#         147
  C:0D6DH         LINE#         148
  C:0D70H         LINE#         149
  C:0D70H         LINE#         152
  C:0D72H         LINE#         153
  C:0D7BH         LINE#         154
  C:0D7EH         LINE#         155
  C:0D7EH         LINE#         156
  C:0D80H         LINE#         157
  C:0D83H         LINE#         158
  C:0D83H         LINE#         161
  C:0D85H         LINE#         162
  C:0D8EH         LINE#         163
  C:0D91H         LINE#         164
  C:0D91H         LINE#         165
  C:0D93H         LINE#         166
  C:0D96H         LINE#         167
  C:0D96H         LINE#         169
  C:0DA2H         LINE#         170
  C:0DA2H         LINE#         171
  C:0DAEH         LINE#         172
  C:0DAEH         LINE#         174
  C:0DB0H         LINE#         175
BL51 BANKED LINKER/LOCATER V6.22.2.0                                                  04/04/2022  23:40:17  PAGE 7


  C:0DB9H         LINE#         176
  C:0DBCH         LINE#         177
  C:0DBCH         LINE#         178
  C:0DBEH         LINE#         179
  C:0DC1H         LINE#         180
  C:0DC1H         LINE#         181
  C:0DC3H         LINE#         182
  C:0DCAH         LINE#         183
  C:0DCEH         LINE#         184
  C:0DD8H         LINE#         185
  C:0DD9H         LINE#         187
  C:0DDCH         LINE#         188
  C:0DE2H         LINE#         189
  C:0DE5H         LINE#         191
  C:0DE8H         LINE#         192
  C:0DEBH         LINE#         193
  C:0DEDH         LINE#         194
  C:0DEFH         LINE#         195
  -------         ENDPROC       GETDATA
  -------         PROC          CHECK
  -------         DO            
  D:0005H         SYMBOL        i
  D:0006H         SYMBOL        chk
  -------         ENDDO         
  C:12B6H         LINE#         205
  C:12B6H         LINE#         206
  C:12B6H         LINE#         208
  C:12B9H         LINE#         209
  C:12C4H         LINE#         210
  C:12D1H         LINE#         211
  C:12D6H         LINE#         212
  C:12D9H         LINE#         214
  C:12DBH         LINE#         215
  -------         ENDPROC       CHECK
  -------         PROC          SENDOUTDATA_ESP8266
  -------         DO            
  D:0007H         SYMBOL        i
  -------         ENDDO         
  C:1100H         LINE#         226
  C:1100H         LINE#         227
  C:1100H         LINE#         229
  C:1103H         LINE#         230
  C:110BH         LINE#         231
  C:110BH         LINE#         234
  C:110BH         LINE#         235
  C:110EH         LINE#         236
  C:1115H         LINE#         237
  C:1115H         LINE#         240
  C:1115H         LINE#         243
  C:1117H         LINE#         244
  C:1120H         LINE#         245
  C:1123H         LINE#         247
  C:1129H         LINE#         248
  C:112FH         LINE#         249
  C:1138H         LINE#         253
  C:113BH         LINE#         254
  -------         ENDPROC       SENDOUTDATA_ESP8266
BL51 BANKED LINKER/LOCATER V6.22.2.0                                                  04/04/2022  23:40:17  PAGE 8


  -------         PROC          SENDOUTDATA_SERIAL
  -------         DO            
  D:0007H         SYMBOL        i
  -------         ENDDO         
  C:1207H         LINE#         265
  C:1207H         LINE#         266
  C:1207H         LINE#         268
  C:120AH         LINE#         269
  C:1212H         LINE#         270
  C:1212H         LINE#         273
  C:1212H         LINE#         274
  C:1215H         LINE#         275
  C:121CH         LINE#         276
  C:121CH         LINE#         279
  C:121CH         LINE#         280
  C:121EH         LINE#         281
  C:1224H         LINE#         282
  C:122AH         LINE#         283
  C:1232H         LINE#         287
  C:1235H         LINE#         288
  -------         ENDPROC       SENDOUTDATA_SERIAL
  -------         PROC          SENDOUTDH11STR
  -------         DO            
  D:0007H         SYMBOL        i
  D:002CH         SYMBOL        HD11_str
  D:0007H         SYMBOL        RH
  D:0039H         SYMBOL        RL
  D:0006H         SYMBOL        TH
  D:003AH         SYMBOL        TL
  D:003BH         SYMBOL        revise
  -------         ENDDO         
  C:0FE7H         LINE#         296
  C:0FE7H         LINE#         297
  C:0FE7H         LINE#         301
  C:0FEAH         LINE#         302
  C:0FF2H         LINE#         303
  C:0FF2H         LINE#         306
  C:0FF2H         LINE#         307
  C:0FF5H         LINE#         308
  C:0FFCH         LINE#         309
  C:0FFCH         LINE#         312
  C:0FFCH         LINE#         314
  C:0FFEH         LINE#         315
  C:1001H         LINE#         316
  C:1003H         LINE#         317
  C:1006H         LINE#         318
  C:1009H         LINE#         321
  C:1012H         LINE#         322
  C:101DH         LINE#         323
  C:1020H         LINE#         324
  C:1023H         LINE#         325
  C:1026H         LINE#         326
  C:1029H         LINE#         327
  C:102CH         LINE#         328
  C:1035H         LINE#         329
  C:1040H         LINE#         330
  C:1043H         LINE#         331
BL51 BANKED LINKER/LOCATER V6.22.2.0                                                  04/04/2022  23:40:17  PAGE 9


  C:1046H         LINE#         333
  C:104FH         LINE#         334
  C:1052H         LINE#         335
  -------         ENDPROC       SENDOUTDH11STR
  -------         PROC          MAIN
  C:12DCH         LINE#         337
  C:12DCH         LINE#         338
  C:12DCH         LINE#         339
  C:12DFH         LINE#         340
  C:12E2H         LINE#         341
  C:12E5H         LINE#         343
  C:12F4H         LINE#         344
  C:12F7H         LINE#         345
  C:12F7H         LINE#         346
  C:12F7H         LINE#         350
  C:12FAH         LINE#         354
  -------         ENDPROC       MAIN
  -------         ENDMOD        MAIN

  -------         MODULE        OLED
  C:0000H         SYMBOL        _ICE_DUMMY_
  C:1395H         PUBLIC        OLED_Display_On
  D:0080H         PUBLIC        P0
  D:0090H         PUBLIC        P1
  D:00A0H         PUBLIC        P2
  D:00B0H         PUBLIC        P3
  D:00C0H         PUBLIC        P4
  D:00C8H         PUBLIC        P5
  C:113CH         PUBLIC        _fill_picture
  D:00A8H         PUBLIC        IE
  C:12FCH         PUBLIC        _Delay_50ms
  D:00B8H         PUBLIC        IP
  C:0AE2H         PUBLIC        OLED_Init
  C:13F1H         PUBLIC        _Write_IIC_Data
  D:00D8H         PUBLIC        CCON
  C:10BCH         PUBLIC        _OLED_ShowString
  C:1251H         PUBLIC        _OLED_WR_Byte
  C:0BC9H         PUBLIC        _OLED_ShowChar
  C:0003H         PUBLIC        F6x8
  C:081BH         PUBLIC        Hzk
  D:0098H         PUBLIC        SCON
  B:0090H.0       PUBLIC        OLED_SDIN
  D:0088H         PUBLIC        TCON
  C:11DDH         PUBLIC        _Write_IIC_Byte
  C:022BH         PUBLIC        F8X16
  C:13DEH         PUBLIC        IIC_Wait_Ack
  C:1171H         PUBLIC        OLED_On
  C:1433H         PUBLIC        IIC_Start
  C:1262H         PUBLIC        _OLED_Set_Pos
  C:0E7CH         PUBLIC        _OLED_ShowCHinese
  C:131AH         PUBLIC        _delay_ms
  C:0F00H         PUBLIC        _OLED_ShowNum
  C:13C2H         PUBLIC        OLED_Display_Off
  C:1366H         PUBLIC        _oled_pow
  C:1444H         PUBLIC        IIC_Stop
  C:1334H         PUBLIC        _Delay_1ms
  C:13E3H         PUBLIC        _Write_IIC_Command
BL51 BANKED LINKER/LOCATER V6.22.2.0                                                  04/04/2022  23:40:17  PAGE 10


  B:0090H.1       PUBLIC        OLED_SCL
  C:11A4H         PUBLIC        OLED_Clear
  C:1053H         PUBLIC        _OLED_DrawBMP
  D:00D0H         PUBLIC        PSW
  -------         PROC          _DELAY_MS
  D:0006H         SYMBOL        ms
  -------         DO            
  D:0004H         SYMBOL        a
  -------         ENDDO         
  C:131AH         LINE#         37
  C:131AH         LINE#         38
  C:131AH         LINE#         40
  C:131EH         LINE#         41
  C:131EH         LINE#         42
  C:1322H         LINE#         43
  C:132CH         LINE#         44
  C:1331H         LINE#         45
  C:1333H         LINE#         47
  -------         ENDPROC       _DELAY_MS
  -------         PROC          IIC_START
  C:1433H         LINE#         51
  C:1433H         LINE#         52
  C:1433H         LINE#         54
  C:1435H         LINE#         55
  C:1437H         LINE#         56
  C:1439H         LINE#         57
  C:143BH         LINE#         58
  -------         ENDPROC       IIC_START
  -------         PROC          IIC_STOP
  C:1444H         LINE#         63
  C:1444H         LINE#         64
  C:1444H         LINE#         65
  C:1446H         LINE#         67
  C:1448H         LINE#         68
  C:144AH         LINE#         70
  -------         ENDPROC       IIC_STOP
  -------         PROC          L?0113
  -------         ENDPROC       L?0113
  -------         PROC          IIC_WAIT_ACK
  C:13DEH         LINE#         72
  C:13DEH         LINE#         73
  C:13DEH         LINE#         91
  C:13E0H         LINE#         92
  C:13E2H         LINE#         93
  -------         ENDPROC       IIC_WAIT_ACK
  -------         PROC          L?0114
  -------         ENDPROC       L?0114
  -------         PROC          _WRITE_IIC_BYTE
  D:0007H         SYMBOL        IIC_Byte
  -------         DO            
  D:0006H         SYMBOL        i
  D:0005H         SYMBOL        m
  D:0007H         SYMBOL        da
  -------         ENDDO         
  C:11DDH         LINE#         98
  C:11DDH         LINE#         99
  C:11DDH         LINE#         102
BL51 BANKED LINKER/LOCATER V6.22.2.0                                                  04/04/2022  23:40:17  PAGE 11


  C:11DDH         LINE#         103
  C:11DFH         LINE#         104
  C:11EBH         LINE#         105
  C:11EBH         LINE#         106
  C:11EDH         LINE#         108
  C:11F0H         LINE#         109
  C:11F5H         LINE#         110
  C:11F9H         LINE#         111
  C:11FBH         LINE#         112
  C:11FFH         LINE#         113
  C:1201H         LINE#         114
  C:1203H         LINE#         115
  C:1206H         LINE#         118
  -------         ENDPROC       _WRITE_IIC_BYTE
  -------         PROC          _WRITE_IIC_COMMAND
  D:0004H         SYMBOL        IIC_Command
  C:13E3H         LINE#         122
  C:13E3H         LINE#         123
  C:13E3H         LINE#         124
  C:13E3H         LINE#         125
  C:13E6H         LINE#         126
  C:13E9H         LINE#         127
  C:13EBH         LINE#         128
  C:13EBH         LINE#         129
  C:13EBH         LINE#         130
  C:13EEH         LINE#         131
  -------         ENDPROC       _WRITE_IIC_COMMAND
  -------         PROC          _WRITE_IIC_DATA
  D:0004H         SYMBOL        IIC_Data
  C:13F1H         LINE#         136
  C:13F1H         LINE#         137
  C:13F1H         LINE#         138
  C:13F1H         LINE#         139
  C:13F4H         LINE#         140
  C:13F7H         LINE#         141
  C:13F9H         LINE#         142
  C:13F9H         LINE#         143
  C:13F9H         LINE#         144
  C:13FCH         LINE#         145
  -------         ENDPROC       _WRITE_IIC_DATA
  C:1236H         SYMBOL        L?0109
  C:1240H         SYMBOL        L?0110
  C:1247H         SYMBOL        L?0111
  C:124DH         SYMBOL        L?0112
  -------         PROC          L?0108
  -------         ENDPROC       L?0108
  C:1236H         SYMBOL        L?0109
  C:1240H         SYMBOL        L?0110
  C:1247H         SYMBOL        L?0111
  C:124DH         SYMBOL        L?0112
  -------         PROC          _OLED_WR_BYTE
  D:0002H         SYMBOL        dat
  D:0004H         SYMBOL        cmd
  C:1251H         LINE#         147
  C:1255H         LINE#         148
  C:1255H         LINE#         149
  C:1259H         LINE#         150
BL51 BANKED LINKER/LOCATER V6.22.2.0                                                  04/04/2022  23:40:17  PAGE 12


  C:1259H         LINE#         152
  C:125CH         LINE#         154
  C:125CH         LINE#         155
  C:125CH         LINE#         156
  C:1261H         LINE#         158
  C:1261H         LINE#         161
  -------         ENDPROC       _OLED_WR_BYTE
  -------         PROC          _FILL_PICTURE
  D:0060H         SYMBOL        fill_Data
  -------         DO            
  D:0001H         SYMBOL        m
  D:0061H         SYMBOL        n
  -------         ENDDO         
  C:113CH         LINE#         166
  C:113EH         LINE#         167
  C:113EH         LINE#         169
  C:114DH         LINE#         170
  C:114DH         LINE#         171
  C:114DH         LINE#         172
  C:114DH         LINE#         173
  C:1150H         LINE#         174
  C:115EH         LINE#         175
  C:115EH         LINE#         176
  C:1169H         LINE#         177
  C:116DH         LINE#         178
  C:1170H         LINE#         179
  -------         ENDPROC       _FILL_PICTURE
  -------         PROC          _DELAY_50MS
  D:0006H         SYMBOL        Del_50ms
  -------         DO            
  D:0004H         SYMBOL        m
  -------         ENDDO         
  C:12FCH         LINE#         183
  C:12FCH         LINE#         184
  C:12FCH         LINE#         186
  C:1305H         LINE#         187
  C:1319H         LINE#         188
  -------         ENDPROC       _DELAY_50MS
  -------         PROC          _DELAY_1MS
  D:0006H         SYMBOL        Del_1ms
  -------         DO            
  D:0005H         SYMBOL        j
  -------         ENDDO         
  C:1334H         LINE#         190
  C:1334H         LINE#         191
  C:1334H         LINE#         193
  C:133EH         LINE#         194
  C:133EH         LINE#         195
  C:134DH         LINE#         196
  C:134DH         LINE#         197
  -------         ENDPROC       _DELAY_1MS
  -------         PROC          _OLED_SET_POS
  D:0001H         SYMBOL        x
  D:0005H         SYMBOL        y
  C:1262H         LINE#         201
  C:1264H         LINE#         202
  C:1271H         LINE#         203
BL51 BANKED LINKER/LOCATER V6.22.2.0                                                  04/04/2022  23:40:17  PAGE 13


  C:1282H         LINE#         204
  -------         ENDPROC       _OLED_SET_POS
  -------         PROC          OLED_DISPLAY_ON
  C:1395H         LINE#         207
  C:1395H         LINE#         208
  C:1395H         LINE#         209
  C:139AH         LINE#         210
  C:13A3H         LINE#         211
  -------         ENDPROC       OLED_DISPLAY_ON
  -------         PROC          OLED_DISPLAY_OFF
  C:13C2H         LINE#         214
  C:13C2H         LINE#         215
  C:13C2H         LINE#         216
  C:13C7H         LINE#         217
  C:13CAH         LINE#         218
  -------         ENDPROC       OLED_DISPLAY_OFF
  -------         PROC          OLED_CLEAR
  -------         DO            
  D:0001H         SYMBOL        i
  D:003CH         SYMBOL        n
  -------         ENDDO         
  C:11A4H         LINE#         221
  C:11A4H         LINE#         222
  C:11A4H         LINE#         224
  C:11B3H         LINE#         225
  C:11B3H         LINE#         226
  C:11B3H         LINE#         227
  C:11B3H         LINE#         228
  C:11B6H         LINE#         229
  C:11D2H         LINE#         230
  C:11D5H         LINE#         231
  -------         ENDPROC       OLED_CLEAR
  -------         PROC          OLED_ON
  -------         DO            
  D:0001H         SYMBOL        i
  D:0062H         SYMBOL        n
  -------         ENDDO         
  C:1171H         LINE#         232
  C:1171H         LINE#         233
  C:1171H         LINE#         235
  C:1180H         LINE#         236
  C:1180H         LINE#         237
  C:1180H         LINE#         238
  C:1180H         LINE#         239
  C:1183H         LINE#         240
  C:11A0H         LINE#         241
  C:11A3H         LINE#         242
  -------         ENDPROC       OLED_ON
  -------         PROC          _OLED_SHOWCHAR
  D:0043H         SYMBOL        x
  D:0044H         SYMBOL        y
  D:0003H         SYMBOL        chr
  D:0046H         SYMBOL        Char_Size
  -------         DO            
  D:0047H         SYMBOL        c
  D:0001H         SYMBOL        i
  -------         ENDDO         
BL51 BANKED LINKER/LOCATER V6.22.2.0                                                  04/04/2022  23:40:17  PAGE 14


  C:0BC9H         LINE#         248
  C:0BCDH         LINE#         249
  C:0BCDH         LINE#         250
  C:0BD1H         LINE#         251
  C:0BD6H         LINE#         252
  C:0BE7H         LINE#         253
  C:0BEDH         LINE#         254
  C:0BEDH         LINE#         255
  C:0BF4H         LINE#         256
  C:0C00H         LINE#         257
  C:0C29H         LINE#         258
  C:0C32H         LINE#         259
  C:0C3EH         LINE#         260
  C:0C67H         LINE#         261
  C:0C67H         LINE#         262
  C:0C67H         LINE#         263
  C:0C6EH         LINE#         264
  C:0C7AH         LINE#         265
  C:0CA3H         LINE#         267
  C:0CA3H         LINE#         268
  -------         ENDPROC       _OLED_SHOWCHAR
  -------         PROC          _OLED_POW
  D:0063H         SYMBOL        m
  D:0001H         SYMBOL        n
  -------         DO            
  D:0006H         SYMBOL        result
  -------         ENDDO         
  C:1366H         LINE#         270
  C:136AH         LINE#         271
  C:136AH         LINE#         272
  C:136EH         LINE#         273
  C:137DH         LINE#         274
  C:137DH         LINE#         275
  -------         ENDPROC       _OLED_POW
  -------         PROC          _OLED_SHOWNUM
  D:0053H         SYMBOL        x
  D:0054H         SYMBOL        y
  D:0055H         SYMBOL        num
  D:0057H         SYMBOL        len
  D:0058H         SYMBOL        size2
  -------         DO            
  D:0059H         SYMBOL        t
  D:005AH         SYMBOL        temp
  D:005BH         SYMBOL        enshow
  -------         ENDDO         
  C:0F00H         LINE#         282
  C:0F08H         LINE#         283
  C:0F08H         LINE#         285
  C:0F0BH         LINE#         286
  C:0F14H         LINE#         287
  C:0F14H         LINE#         288
  C:0F36H         LINE#         289
  C:0F44H         LINE#         290
  C:0F44H         LINE#         291
  C:0F48H         LINE#         292
  C:0F48H         LINE#         293
  C:0F58H         LINE#         294
BL51 BANKED LINKER/LOCATER V6.22.2.0                                                  04/04/2022  23:40:17  PAGE 15


  C:0F5AH         LINE#         295
  C:0F5DH         LINE#         297
  C:0F5DH         LINE#         298
  C:0F75H         LINE#         299
  C:0F79H         LINE#         300
  -------         ENDPROC       _OLED_SHOWNUM
  -------         PROC          _OLED_SHOWSTRING
  D:003CH         SYMBOL        x
  D:003DH         SYMBOL        y
  D:003EH         SYMBOL        chr
  D:0041H         SYMBOL        Char_Size
  -------         DO            
  D:0042H         SYMBOL        j
  -------         ENDDO         
  C:10BCH         LINE#         302
  C:10C6H         LINE#         303
  C:10C6H         LINE#         304
  C:10C9H         LINE#         305
  C:10DBH         LINE#         306
  C:10E5H         LINE#         307
  C:10EBH         LINE#         308
  C:10FBH         LINE#         309
  C:10FDH         LINE#         310
  C:10FFH         LINE#         311
  -------         ENDPROC       _OLED_SHOWSTRING
  -------         PROC          _OLED_SHOWCHINESE
  D:005CH         SYMBOL        x
  D:005DH         SYMBOL        y
  D:005EH         SYMBOL        no
  -------         DO            
  D:0001H         SYMBOL        t
  D:005FH         SYMBOL        adder
  -------         ENDDO         
  C:0E7CH         LINE#         313
  C:0E82H         LINE#         314
  C:0E82H         LINE#         315
  C:0E85H         LINE#         316
  C:0E88H         LINE#         317
  C:0E94H         LINE#         318
  C:0E94H         LINE#         319
  C:0EBAH         LINE#         320
  C:0EBCH         LINE#         321
  C:0EBFH         LINE#         322
  C:0EC8H         LINE#         323
  C:0ED4H         LINE#         324
  C:0ED4H         LINE#         325
  C:0EFAH         LINE#         326
  C:0EFCH         LINE#         327
  C:0EFFH         LINE#         328
  -------         ENDPROC       _OLED_SHOWCHINESE
  -------         PROC          _OLED_DRAWBMP
  D:0048H         SYMBOL        x0
  D:0005H         SYMBOL        y0
  D:004AH         SYMBOL        x1
  D:004BH         SYMBOL        y1
  D:004CH         SYMBOL        BMP
  -------         DO            
BL51 BANKED LINKER/LOCATER V6.22.2.0                                                  04/04/2022  23:40:17  PAGE 16


  D:004FH         SYMBOL        j
  D:0051H         SYMBOL        x
  D:0052H         SYMBOL        y
  -------         ENDDO         
  C:1053H         LINE#         330
  C:1057H         LINE#         331
  C:1057H         LINE#         332
  C:105CH         LINE#         335
  C:106DH         LINE#         336
  C:1077H         LINE#         337
  C:1080H         LINE#         338
  C:1080H         LINE#         339
  C:1087H         LINE#         340
  C:1091H         LINE#         341
  C:1091H         LINE#         342
  C:10B3H         LINE#         343
  C:10B7H         LINE#         344
  C:10BBH         LINE#         345
  -------         ENDPROC       _OLED_DRAWBMP
  -------         PROC          OLED_INIT
  C:0AE2H         LINE#         348
  C:0AE2H         LINE#         349
  C:0AE2H         LINE#         350
  C:0AE9H         LINE#         351
  C:0AEFH         LINE#         352
  C:0AEFH         LINE#         353
  C:0AF2H         LINE#         354
  C:0AFBH         LINE#         355
  C:0B04H         LINE#         356
  C:0B0DH         LINE#         357
  C:0B16H         LINE#         358
  C:0B1FH         LINE#         359
  C:0B28H         LINE#         360
  C:0B31H         LINE#         361
  C:0B3AH         LINE#         362
  C:0B43H         LINE#         363
  C:0B4CH         LINE#         364
  C:0B54H         LINE#         366
  C:0B5DH         LINE#         367
  C:0B66H         LINE#         369
  C:0B6FH         LINE#         370
  C:0B78H         LINE#         372
  C:0B81H         LINE#         373
  C:0B8AH         LINE#         375
  C:0B93H         LINE#         376
  C:0B9CH         LINE#         378
  C:0BA5H         LINE#         379
  C:0BAEH         LINE#         381
  C:0BB7H         LINE#         382
  C:0BC0H         LINE#         384
  -------         ENDPROC       OLED_INIT
  -------         ENDMOD        OLED

  -------         MODULE        8266_WIFI
  C:0000H         SYMBOL        _ICE_DUMMY_
  D:0080H         PUBLIC        P0
  D:0090H         PUBLIC        P1
BL51 BANKED LINKER/LOCATER V6.22.2.0                                                  04/04/2022  23:40:17  PAGE 17


  D:00A0H         PUBLIC        P2
  D:00B0H         PUBLIC        P3
  D:00C0H         PUBLIC        P4
  D:00C8H         PUBLIC        P5
  D:00A8H         PUBLIC        IE
  C:1426H         PUBLIC        Delay1000ms
  B:00A8H.4       PUBLIC        ES
  D:00B8H         PUBLIC        IP
  B:0098H.1       PUBLIC        TI
  D:00D8H         PUBLIC        CCON
  C:09DBH         PUBLIC        connect_8266
  D:0099H         PUBLIC        SBUF
  D:0098H         PUBLIC        SCON
  D:0088H         PUBLIC        TCON
  C:13ACH         PUBLIC        _UART_SendByte
  D:00D0H         PUBLIC        PSW
  -------         PROC          DELAY1000MS
  -------         DO            
  D:0007H         SYMBOL        i
  D:0006H         SYMBOL        j
  D:0005H         SYMBOL        k
  -------         ENDDO         
  C:1426H         LINE#         6
  C:1426H         LINE#         7
  C:1426H         LINE#         10
  C:1428H         LINE#         11
  C:142AH         LINE#         12
  C:142CH         LINE#         14
  C:142CH         LINE#         16
  C:142CH         LINE#         17
  C:142EH         LINE#         18
  C:1430H         LINE#         19
  C:1432H         LINE#         20
  -------         ENDPROC       DELAY1000MS
  -------         PROC          _UART_SENDBYTE
  D:0001H         SYMBOL        Byte
  C:13ACH         LINE#         23
  C:13ACH         LINE#         24
  C:13ACH         LINE#         25
  C:13B1H         LINE#         26
  C:13B1H         LINE#         27
  C:13B3H         LINE#         28
  C:13B6H         LINE#         29
  C:13B8H         LINE#         30
  C:13BFH         LINE#         31
  C:13C1H         LINE#         32
  -------         ENDPROC       _UART_SENDBYTE
  -------         PROC          CONNECT_8266
  -------         DO            
  D:001AH         SYMBOL        a
  D:001DH         SYMBOL        b
  D:0020H         SYMBOL        c
  D:0023H         SYMBOL        d
  D:0026H         SYMBOL        e
  D:0029H         SYMBOL        f
  -------         ENDDO         
  C:09DBH         LINE#         34
BL51 BANKED LINKER/LOCATER V6.22.2.0                                                  04/04/2022  23:40:17  PAGE 18


  C:09DBH         LINE#         35
  C:09DBH         LINE#         36
  C:09E4H         LINE#         37
  C:09EDH         LINE#         38
  C:09F6H         LINE#         39
  C:09FFH         LINE#         40
  C:0A08H         LINE#         41
  C:0A11H         LINE#         42
  C:0A13H         LINE#         43
  C:0A1EH         LINE#         44
  C:0A1EH         LINE#         45
  C:0A20H         LINE#         46
  C:0A23H         LINE#         47
  C:0A25H         LINE#         48
  C:0A30H         LINE#         49
  C:0A32H         LINE#         50
  C:0A35H         LINE#         51
  C:0A40H         LINE#         52
  C:0A40H         LINE#         53
  C:0A42H         LINE#         54
  C:0A45H         LINE#         55
  C:0A47H         LINE#         56
  C:0A52H         LINE#         57
  C:0A54H         LINE#         58
  C:0A57H         LINE#         59
  C:0A62H         LINE#         60
  C:0A62H         LINE#         61
  C:0A64H         LINE#         62
  C:0A67H         LINE#         63
  C:0A69H         LINE#         64
  C:0A74H         LINE#         65
  C:0A76H         LINE#         66
  C:0A79H         LINE#         75
  C:0A84H         LINE#         76
  C:0A84H         LINE#         77
  C:0A86H         LINE#         78
  C:0A89H         LINE#         79
  C:0A8BH         LINE#         80
  C:0A96H         LINE#         81
  C:0A98H         LINE#         82
  C:0A9BH         LINE#         83
  C:0AA6H         LINE#         84
  C:0AA6H         LINE#         85
  C:0AA8H         LINE#         86
  C:0AABH         LINE#         87
  C:0AADH         LINE#         88
  C:0AB8H         LINE#         89
  C:0ABAH         LINE#         90
  C:0ABDH         LINE#         91
  C:0AC8H         LINE#         92
  C:0AC8H         LINE#         93
  C:0ACAH         LINE#         94
  C:0ACDH         LINE#         95
  C:0ACFH         LINE#         96
  C:0ADAH         LINE#         97
  C:0ADCH         LINE#         98
  C:0ADFH         LINE#         99
BL51 BANKED LINKER/LOCATER V6.22.2.0                                                  04/04/2022  23:40:17  PAGE 19


  C:0AE1H         LINE#         101
  -------         ENDPROC       CONNECT_8266
  -------         ENDMOD        8266_WIFI

  -------         MODULE        ?C?CLDPTR
  C:0CA4H         PUBLIC        ?C?CLDPTR
  -------         ENDMOD        ?C?CLDPTR

  -------         MODULE        ?C?CLDOPTR
  C:0CBDH         PUBLIC        ?C?CLDOPTR
  -------         ENDMOD        ?C?CLDOPTR

  -------         MODULE        ?C?IMUL
  C:0CEAH         PUBLIC        ?C?IMUL
  -------         ENDMOD        ?C?IMUL

  -------         MODULE        ?C?UIDIV
  C:0CFCH         PUBLIC        ?C?UIDIV
  -------         ENDMOD        ?C?UIDIV

Program Size: data=101.0 xdata=0 code=5204
LINK/LOCATE RUN COMPLETE.  0 WARNING(S),  0 ERROR(S)
